{
  "contractName": "KycContract",
  "abi": [
    {
      "inputs": [
        {
          "internalType": "address",
          "name": "_addr",
          "type": "address"
        },
        {
          "internalType": "bool",
          "name": "_status",
          "type": "bool"
        }
      ],
      "name": "setKycStatus",
      "outputs": [],
      "stateMutability": "nonpayable",
      "type": "function"
    },
    {
      "inputs": [
        {
          "internalType": "address",
          "name": "_addr",
          "type": "address"
        }
      ],
      "name": "isKycCompleted",
      "outputs": [
        {
          "internalType": "bool",
          "name": "",
          "type": "bool"
        }
      ],
      "stateMutability": "view",
      "type": "function",
      "constant": true
    }
  ],
  "bytecode": "0x608060405234801561001057600080fd5b50610291806100206000396000f3fe608060405234801561001057600080fd5b50600436106100365760003560e01c80638a0375621461003b578063e37a35c71461006b575b600080fd5b61005560048036038101906100509190610160565b610087565b60405161006291906101d4565b60405180910390f35b61008560048036038101906100809190610189565b6100dc565b005b60008060008373ffffffffffffffffffffffffffffffffffffffff1673ffffffffffffffffffffffffffffffffffffffff16815260200190815260200160002060009054906101000a900460ff169050919050565b806000808473ffffffffffffffffffffffffffffffffffffffff1673ffffffffffffffffffffffffffffffffffffffff16815260200190815260200160002060006101000a81548160ff0219169083151502179055505050565b6000813590506101458161022d565b92915050565b60008135905061015a81610244565b92915050565b60006020828403121561017257600080fd5b600061018084828501610136565b91505092915050565b6000806040838503121561019c57600080fd5b60006101aa85828601610136565b92505060206101bb8582860161014b565b9150509250929050565b6101ce81610201565b82525050565b60006020820190506101e960008301846101c5565b92915050565b60006101fa8261020d565b9050919050565b60008115159050919050565b600073ffffffffffffffffffffffffffffffffffffffff82169050919050565b610236816101ef565b811461024157600080fd5b50565b61024d81610201565b811461025857600080fd5b5056fea26469706673582212209eb8ab5c6fe9d3711c4b03bd1ab82be35d78db669940afc6f193add7aebbe16464736f6c63430008040033",
  "immutableReferences": {},
  "source": "// SPDX-License-Identifier: MIT\r\npragma solidity ^0.8.4;\r\n\r\ncontract KycContract {\r\n    mapping (address=>bool) kycList;\r\n\r\n    function setKycStatus(address _addr, bool _status) public {\r\n        kycList[_addr] = _status;\r\n    }\r\n\r\n    function isKycCompleted(address _addr) view public returns (bool) {\r\n        return kycList[_addr];\r\n    }\r\n\r\n}",
  "sourcePath": "E:/blockchain/tokenization/contracts/KycContract.sol",
  "compiler": {
    "name": "solc",
    "version": "0.8.4+commit.c7e474f2.Emscripten.clang"
  },
  "schemaVersion": "3.4.1",
  "updatedAt": "2021-06-05T21:33:10.256Z",
  "networkType": "ethereum",
  "devdoc": {
    "kind": "dev",
    "methods": {},
    "version": 1
  },
  "userdoc": {
    "kind": "user",
    "methods": {},
    "version": 1
  }
}