{
  "contractName": "KycContract",
  "abi": [
    {
      "inputs": [
        {
          "internalType": "address",
          "name": "_addr",
          "type": "address"
        },
        {
          "internalType": "bool",
          "name": "_status",
          "type": "bool"
        }
      ],
      "name": "setKycStatus",
      "outputs": [],
      "stateMutability": "nonpayable",
      "type": "function"
    },
    {
      "inputs": [
        {
          "internalType": "address",
          "name": "_addr",
          "type": "address"
        }
      ],
      "name": "isKycCompleted",
      "outputs": [
        {
          "internalType": "bool",
          "name": "",
          "type": "bool"
        }
      ],
      "stateMutability": "view",
      "type": "function",
      "constant": true
    }
  ],
  "bytecode": "0x608060405234801561001057600080fd5b5061029e806100206000396000f3fe608060405234801561001057600080fd5b50600436106100365760003560e01c80638a0375621461003b578063e37a35c71461006b575b600080fd5b61005560048036038101906100509190610160565b610087565b60405161006291906101dc565b60405180910390f35b6100856004803603810190610080919061018d565b6100dc565b005b60008060008373ffffffffffffffffffffffffffffffffffffffff1673ffffffffffffffffffffffffffffffffffffffff16815260200190815260200160002060009054906101000a900460ff169050919050565b806000808473ffffffffffffffffffffffffffffffffffffffff1673ffffffffffffffffffffffffffffffffffffffff16815260200190815260200160002060006101000a81548160ff0219169083151502179055505050565b6000813590506101458161023a565b92915050565b60008135905061015a81610251565b92915050565b60006020828403121561017657610175610235565b5b600061018484828501610136565b91505092915050565b600080604083850312156101a4576101a3610235565b5b60006101b285828601610136565b92505060206101c38582860161014b565b9150509250929050565b6101d681610209565b82525050565b60006020820190506101f160008301846101cd565b92915050565b600061020282610215565b9050919050565b60008115159050919050565b600073ffffffffffffffffffffffffffffffffffffffff82169050919050565b600080fd5b610243816101f7565b811461024e57600080fd5b50565b61025a81610209565b811461026557600080fd5b5056fea26469706673582212208710bca3b2af2344462ee801b893c8952205ef1a9e3d24c7d6485fb65a1fb5dd64736f6c63430008050033",
  "immutableReferences": {},
  "source": "// SPDX-License-Identifier: MIT\npragma solidity ^0.8.4;\n\ncontract KycContract {\n    mapping (address=>bool) kycList;\n\n    function setKycStatus(address _addr, bool _status) public {\n        kycList[_addr] = _status;\n    }\n\n    function isKycCompleted(address _addr) view public returns (bool) {\n        return kycList[_addr];\n    }\n\n}",
  "sourcePath": "/Volumes/DEV/leotoken/contracts/KycContract.sol",
  "compiler": {
    "name": "solc",
    "version": "0.8.5+commit.a4f2e591.Emscripten.clang"
  },
  "schemaVersion": "3.4.1",
  "updatedAt": "2021-06-10T14:40:48.675Z",
  "networkType": "ethereum",
  "devdoc": {
    "kind": "dev",
    "methods": {},
    "version": 1
  },
  "userdoc": {
    "kind": "user",
    "methods": {},
    "version": 1
  }
}