{
  "contractName": "MyTokenSale",
  "abi": [
    {
      "inputs": [
        {
          "internalType": "uint256",
          "name": "_rate",
          "type": "uint256"
        },
        {
          "internalType": "address payable",
          "name": "_wallet",
          "type": "address"
        },
        {
          "internalType": "contract IERC20",
          "name": "_token",
          "type": "address"
        }
      ],
      "stateMutability": "nonpayable",
      "type": "constructor"
    },
    {
      "anonymous": false,
      "inputs": [
        {
          "indexed": true,
          "internalType": "address",
          "name": "purchaser",
          "type": "address"
        },
        {
          "indexed": true,
          "internalType": "address",
          "name": "beneficiary",
          "type": "address"
        },
        {
          "indexed": false,
          "internalType": "uint256",
          "name": "value",
          "type": "uint256"
        },
        {
          "indexed": false,
          "internalType": "uint256",
          "name": "amount",
          "type": "uint256"
        }
      ],
      "name": "TokensPurchased",
      "type": "event"
    },
    {
      "inputs": [
        {
          "internalType": "address",
          "name": "beneficiary",
          "type": "address"
        }
      ],
      "name": "buyTokens",
      "outputs": [],
      "stateMutability": "payable",
      "type": "function",
      "payable": true
    },
    {
      "inputs": [],
      "name": "rate",
      "outputs": [
        {
          "internalType": "uint256",
          "name": "",
          "type": "uint256"
        }
      ],
      "stateMutability": "view",
      "type": "function",
      "constant": true
    },
    {
      "inputs": [],
      "name": "token",
      "outputs": [
        {
          "internalType": "contract IERC20",
          "name": "",
          "type": "address"
        }
      ],
      "stateMutability": "view",
      "type": "function",
      "constant": true
    },
    {
      "inputs": [],
      "name": "wallet",
      "outputs": [
        {
          "internalType": "address payable",
          "name": "",
          "type": "address"
        }
      ],
      "stateMutability": "view",
      "type": "function",
      "constant": true
    },
    {
      "inputs": [],
      "name": "weiRaised",
      "outputs": [
        {
          "internalType": "uint256",
          "name": "",
          "type": "uint256"
        }
      ],
      "stateMutability": "view",
      "type": "function",
      "constant": true
    },
    {
      "stateMutability": "payable",
      "type": "receive",
      "payable": true
    }
  ],
  "bytecode": "0x60806040523480156200001157600080fd5b5060405162000dc738038062000dc783398181016040528101906200003791906200023f565b8282826000831162000080576040517f08c379a000000000000000000000000000000000000000000000000000000000815260040162000077906200032c565b60405180910390fd5b600073ffffffffffffffffffffffffffffffffffffffff168273ffffffffffffffffffffffffffffffffffffffff161415620000f3576040517f08c379a0000000000000000000000000000000000000000000000000000000008152600401620000ea906200034e565b60405180910390fd5b600073ffffffffffffffffffffffffffffffffffffffff168173ffffffffffffffffffffffffffffffffffffffff16141562000166576040517f08c379a00000000000000000000000000000000000000000000000000000000081526004016200015d906200030a565b60405180910390fd5b8260028190555081600160006101000a81548173ffffffffffffffffffffffffffffffffffffffff021916908373ffffffffffffffffffffffffffffffffffffffff160217905550806000806101000a81548173ffffffffffffffffffffffffffffffffffffffff021916908373ffffffffffffffffffffffffffffffffffffffff160217905550505050505050620004fc565b6000815190506200020b81620004ae565b92915050565b6000815190506200022281620004c8565b92915050565b6000815190506200023981620004e2565b92915050565b6000806000606084860312156200025557600080fd5b6000620002658682870162000228565b93505060206200027886828701620001fa565b92505060406200028b8682870162000211565b9150509250925092565b6000620002a460248362000370565b9150620002b182620003e7565b604082019050919050565b6000620002cb60148362000370565b9150620002d88262000436565b602082019050919050565b6000620002f260258362000370565b9150620002ff826200045f565b604082019050919050565b60006020820190508181036000830152620003258162000295565b9050919050565b600060208201905081810360008301526200034781620002bc565b9050919050565b600060208201905081810360008301526200036981620002e3565b9050919050565b600082825260208201905092915050565b60006200038e82620003bd565b9050919050565b6000620003a282620003bd565b9050919050565b6000620003b68262000381565b9050919050565b600073ffffffffffffffffffffffffffffffffffffffff82169050919050565b6000819050919050565b7f43726f776473616c653a20746f6b656e20697320746865207a65726f2061646460008201527f7265737300000000000000000000000000000000000000000000000000000000602082015250565b7f43726f776473616c653a20726174652069732030000000000000000000000000600082015250565b7f43726f776473616c653a2077616c6c657420697320746865207a65726f20616460008201527f6472657373000000000000000000000000000000000000000000000000000000602082015250565b620004b98162000395565b8114620004c557600080fd5b50565b620004d381620003a9565b8114620004df57600080fd5b50565b620004ed81620003dd565b8114620004f957600080fd5b50565b6108bb806200050c6000396000f3fe60806040526004361061004e5760003560e01c80632c4e722e146100635780634042b66f1461008e578063521eb273146100b9578063ec8ac4d8146100e4578063fc0c546a146101005761005e565b3661005e5761005c3361012b565b005b600080fd5b34801561006f57600080fd5b506100786101f4565b604051610085919061062d565b60405180910390f35b34801561009a57600080fd5b506100a36101fe565b6040516100b0919061062d565b60405180910390f35b3480156100c557600080fd5b506100ce610208565b6040516100db919061058e565b60405180910390f35b6100fe60048036038101906100f991906104ba565b61012b565b005b34801561010c57600080fd5b50610115610232565b60405161012291906105d2565b60405180910390f35b600034905061013a828261025b565b600061014582610313565b905061015c8260035461033190919063ffffffff16565b60038190555061016c8382610347565b8273ffffffffffffffffffffffffffffffffffffffff163373ffffffffffffffffffffffffffffffffffffffff167f6faf93231a456e552dbc9961f58d9713ee4f2e69d15f1975b050ef0911053a7b84846040516101cb929190610648565b60405180910390a36101dd8383610355565b6101e5610359565b6101ef83836103c4565b505050565b6000600254905090565b6000600354905090565b6000600160009054906101000a900473ffffffffffffffffffffffffffffffffffffffff16905090565b60008060009054906101000a900473ffffffffffffffffffffffffffffffffffffffff16905090565b600073ffffffffffffffffffffffffffffffffffffffff168273ffffffffffffffffffffffffffffffffffffffff1614156102cb576040517f08c379a00000000000000000000000000000000000000000000000000000000081526004016102c2906105ed565b60405180910390fd5b600081141561030f576040517f08c379a00000000000000000000000000000000000000000000000000000000081526004016103069061060d565b60405180910390fd5b5050565b600061032a600254836103c890919063ffffffff16565b9050919050565b6000818361033f9190610682565b905092915050565b61035182826103de565b5050565b5050565b600160009054906101000a900473ffffffffffffffffffffffffffffffffffffffff1673ffffffffffffffffffffffffffffffffffffffff166108fc349081150290604051600060405180830381858888f193505050501580156103c1573d6000803e3d6000fd5b50565b5050565b600081836103d691906106d8565b905092915050565b60008054906101000a900473ffffffffffffffffffffffffffffffffffffffff1673ffffffffffffffffffffffffffffffffffffffff1663a9059cbb83836040518363ffffffff1660e01b81526004016104399291906105a9565b602060405180830381600087803b15801561045357600080fd5b505af1158015610467573d6000803e3d6000fd5b505050506040513d601f19601f8201168201806040525081019061048b91906104e3565b505050565b60008135905061049f81610857565b92915050565b6000815190506104b48161086e565b92915050565b6000602082840312156104cc57600080fd5b60006104da84828501610490565b91505092915050565b6000602082840312156104f557600080fd5b6000610503848285016104a5565b91505092915050565b61051581610744565b82525050565b61052481610732565b82525050565b6105338161078c565b82525050565b6000610546602a83610671565b9150610551826107df565b604082019050919050565b6000610569601983610671565b91506105748261082e565b602082019050919050565b61058881610782565b82525050565b60006020820190506105a3600083018461050c565b92915050565b60006040820190506105be600083018561051b565b6105cb602083018461057f565b9392505050565b60006020820190506105e7600083018461052a565b92915050565b6000602082019050818103600083015261060681610539565b9050919050565b600060208201905081810360008301526106268161055c565b9050919050565b6000602082019050610642600083018461057f565b92915050565b600060408201905061065d600083018561057f565b61066a602083018461057f565b9392505050565b600082825260208201905092915050565b600061068d82610782565b915061069883610782565b9250827fffffffffffffffffffffffffffffffffffffffffffffffffffffffffffffffff038211156106cd576106cc6107b0565b5b828201905092915050565b60006106e382610782565b91506106ee83610782565b9250817fffffffffffffffffffffffffffffffffffffffffffffffffffffffffffffffff0483118215151615610727576107266107b0565b5b828202905092915050565b600061073d82610762565b9050919050565b600061074f82610762565b9050919050565b60008115159050919050565b600073ffffffffffffffffffffffffffffffffffffffff82169050919050565b6000819050919050565b60006107978261079e565b9050919050565b60006107a982610762565b9050919050565b7f4e487b7100000000000000000000000000000000000000000000000000000000600052601160045260246000fd5b7f43726f776473616c653a2062656e656669636961727920697320746865207a6560008201527f726f206164647265737300000000000000000000000000000000000000000000602082015250565b7f43726f776473616c653a20776569416d6f756e74206973203000000000000000600082015250565b61086081610732565b811461086b57600080fd5b50565b61087781610756565b811461088257600080fd5b5056fea2646970667358221220b44286eea8a11f3369a100581394574bbcab0ec0880277b693077c4bf185d8bb64736f6c63430008040033",
  "immutableReferences": {},
  "source": "// SPDX-License-Identifier: MIT\r\npragma solidity 0.8.4;\r\n\r\nimport './Crowdsale.sol';\r\n\r\ncontract MyTokenSale is Crowdsale {\r\n    constructor (uint256 _rate, address payable _wallet, IERC20 _token) Crowdsale(_rate, _wallet, _token) {\r\n        \r\n    }\r\n}",
  "sourcePath": "E:/blockchain/tokenization/contracts/MyTokenSale.sol",
  "compiler": {
    "name": "solc",
    "version": "0.8.4+commit.c7e474f2.Emscripten.clang"
  },
  "schemaVersion": "3.4.1",
  "updatedAt": "2021-06-02T19:32:31.109Z",
  "networkType": "ethereum",
  "devdoc": {
    "kind": "dev",
    "methods": {
      "buyTokens(address)": {
        "details": "low level token purchase ***DO NOT OVERRIDE***",
        "params": {
          "beneficiary": "Recipient of the token purchase"
        }
      },
      "rate()": {
        "returns": {
          "_0": "the number of token units a buyer gets per wei."
        }
      },
      "token()": {
        "returns": {
          "_0": "the token being sold."
        }
      },
      "wallet()": {
        "returns": {
          "_0": "the address where funds are collected."
        }
      },
      "weiRaised()": {
        "returns": {
          "_0": "the amount of wei raised."
        }
      }
    },
    "version": 1
  },
  "userdoc": {
    "events": {
      "TokensPurchased(address,address,uint256,uint256)": {
        "notice": "Event for token purchase logging"
      }
    },
    "kind": "user",
    "methods": {},
    "version": 1
  }
}